{
  "_format": "hh-sol-artifact-1",
  "contractName": "DeliveryWallet",
  "sourceName": "contracts/DeliveryWallet.sol",
  "abi": [
    {
      "inputs": [],
      "stateMutability": "nonpayable",
      "type": "constructor"
    },
    {
      "anonymous": false,
      "inputs": [
        {
          "indexed": true,
          "internalType": "address",
          "name": "previousOwner",
          "type": "address"
        },
        {
          "indexed": true,
          "internalType": "address",
          "name": "newOwner",
          "type": "address"
        }
      ],
      "name": "OwnershipTransferred",
      "type": "event"
    },
    {
      "anonymous": false,
      "inputs": [
        {
          "indexed": false,
          "internalType": "address",
          "name": "contractAddress",
          "type": "address"
        },
        {
          "indexed": false,
          "internalType": "address",
          "name": "from",
          "type": "address"
        },
        {
          "indexed": false,
          "internalType": "address",
          "name": "to",
          "type": "address"
        },
        {
          "indexed": false,
          "internalType": "uint256",
          "name": "amount",
          "type": "uint256"
        }
      ],
      "name": "deliveryToken",
      "type": "event"
    },
    {
      "inputs": [
        {
          "internalType": "address",
          "name": "contractAddress",
          "type": "address"
        },
        {
          "internalType": "address",
          "name": "from",
          "type": "address"
        },
        {
          "internalType": "address",
          "name": "to",
          "type": "address"
        },
        {
          "internalType": "uint256",
          "name": "amount",
          "type": "uint256"
        }
      ],
      "name": "deliveryTokenAssets",
      "outputs": [
        {
          "internalType": "bool",
          "name": "",
          "type": "bool"
        }
      ],
      "stateMutability": "nonpayable",
      "type": "function"
    },
    {
      "inputs": [],
      "name": "owner",
      "outputs": [
        {
          "internalType": "address",
          "name": "",
          "type": "address"
        }
      ],
      "stateMutability": "view",
      "type": "function"
    },
    {
      "inputs": [],
      "name": "renounceOwnership",
      "outputs": [],
      "stateMutability": "nonpayable",
      "type": "function"
    },
    {
      "inputs": [
        {
          "internalType": "address",
          "name": "newOwner",
          "type": "address"
        }
      ],
      "name": "transferOwnership",
      "outputs": [],
      "stateMutability": "nonpayable",
      "type": "function"
    }
  ],
  "bytecode": "0x608060405234801561001057600080fd5b5061001a3361001f565b61006f565b600080546001600160a01b038381166001600160a01b0319831681178455604051919092169283917f8be0079c531659141344cd1fd0a4f28419497f9722a3daafe3b4186f6b6457e09190a35050565b6104af8061007e6000396000f3fe608060405234801561001057600080fd5b506004361061004c5760003560e01c80631c7378d914610051578063715018a6146100795780638da5cb5b14610083578063f2fde38b1461009e575b600080fd5b61006461005f3660046103ea565b6100b1565b60405190151581526020015b60405180910390f35b610081610297565b005b6000546040516001600160a01b039091168152602001610070565b6100816100ac366004610435565b6102ab565b60006100bb610324565b6040516323b872dd60e01b81526001600160a01b0385811660048301523060248301526044820184905286916000918316906323b872dd906064016020604051808303816000875af1158015610115573d6000803e3d6000fd5b505050506040513d601f19601f820116820180604052508101906101399190610457565b9050806101815760405162461bcd60e51b81526020600482015260116024820152701d1c985b9cd9995c919c9bdb4811985a5b607a1b60448201526064015b60405180910390fd5b60405163a9059cbb60e01b81526001600160a01b038681166004830152602482018690526000919084169063a9059cbb906044016020604051808303816000875af11580156101d4573d6000803e3d6000fd5b505050506040513d601f19601f820116820180604052508101906101f89190610457565b9050806102375760405162461bcd60e51b815260206004820152600d60248201526c1d1c985b9cd9995c8819985a5b609a1b6044820152606401610178565b604080516001600160a01b038a8116825289811660208301528816818301526060810187905290517f6a87bea7720ba80b63120541eec852c1f89c9d05f5e4245c492af95eacf579639181900360800190a1506001979650505050505050565b61029f610324565b6102a9600061037e565b565b6102b3610324565b6001600160a01b0381166103185760405162461bcd60e51b815260206004820152602660248201527f4f776e61626c653a206e6577206f776e657220697320746865207a65726f206160448201526564647265737360d01b6064820152608401610178565b6103218161037e565b50565b6000546001600160a01b031633146102a95760405162461bcd60e51b815260206004820181905260248201527f4f776e61626c653a2063616c6c6572206973206e6f7420746865206f776e65726044820152606401610178565b600080546001600160a01b038381166001600160a01b0319831681178455604051919092169283917f8be0079c531659141344cd1fd0a4f28419497f9722a3daafe3b4186f6b6457e09190a35050565b80356001600160a01b03811681146103e557600080fd5b919050565b6000806000806080858703121561040057600080fd5b610409856103ce565b9350610417602086016103ce565b9250610425604086016103ce565b9396929550929360600135925050565b60006020828403121561044757600080fd5b610450826103ce565b9392505050565b60006020828403121561046957600080fd5b8151801515811461045057600080fdfea2646970667358221220ae40c3e2e5945fd4c35751d50bd0879d680539cc5e921979b46902f37fafae9064736f6c63430008120033",
  "linkReferences": {},
  "deployedLinkReferences": {}
}